:020000040000FA
:0400000012EF0EF0FD
:0400080098EF00F07D
:04001800E3EF00F022
:06002A000001716B000EE5
:10003000FA6E0F0E7115E824E824420FD8B0FA2AA0
:10004000F96E2EEF00F039EF00F03EEF00F03EEFDA
:1000500000F04BEF00F074EF00F01200206AE86A45
:100060007A6537EF00F00D80712BC5801200208279
:100070001200712B86EC00F0C96E12007EEC00F0CD
:1000800006E286EC00F004E0712BC96E0D841200CC
:1000900020824DEF00F07EEC00F0C5840D82050E4D
:1000A000716F00C17EF07EA11ED0EEC18EF1000EF8
:1000B000E8CF8FF17FC090F1E60E0201076F0F0EBF
:1000C000086F000E096F000E0A6F8E0EE16E010EB2
:1000D000E26E030E0201176FF70E0201186FC7ECF4
:1000E00002F0000FDEE012000D6A716B12009D96A7
:1000F000C584716B380E60EC15F01200D890C5AC59
:10010000120020807A6BD8804DEF00F07A51D8B47D
:1001100012007B51D96E7B2B7B517D5D7B51D8A02A
:10012000720E7B6F7A07D8B40D94DF50D89412000A
:100130005F6ED838E0CF26F202011F6FFA50276FAA
:10014000FB50286FE950206FDA50216FE150226F89
:10015000E250236FD950246FDA50256FA0A228D027
:10016000A1A226D06FCF29F2E0EC0AF002016F5075
:10017000F10B29116F6EA1920001A3EC1BF002019B
:1001800002012451D96E2551DA6E2251E16E2351BC
:10019000E26E2051E96E2151EA6E2751FA6E285124
:1001A000FB6E1F3926C2E0FFD86E5F3A5F38100041
:1001B0000001F2503FEC16F09E503FEC16F0A150BB
:1001C0003FEC16F0D9D75E6ED838E0CF1CF20201B2
:1001D000196FFA501D6FFB501E6FD9501A6FDA500D
:1001E0001B6F0001D890A0EC1BF002012CE2F2AAD8
:1001F000FDEF00F0F2B43BEF01F0F2A603EF01F0E7
:10020000F2B036EF01F09DA60CEF01F09EA60CEFC8
:1002100001F09E9617EC00F0A0A616EF01F0A1A643
:1002200016EF01F0A19677EC01F0020128EC05F041
:1002300002019DAA1FEF01F09EBA54EF01F00001E8
:10024000A1EC1BF002011A51D96E1B51DA6E1D513F
:10025000FA6E1E51FB6E19391CC2E0FFD86E5E3A71
:100260005E381000F298F2921FEF01F0F296000152
:10027000FB801FEF01F0F294082AD8B4092A00018C
:10028000FB851FEF01F09E909D901FEF01F09E985F
:10029000000048EF01F01FEF01F09D989E980000CC
:1002A0004FEF01F01FEF01F00001ABB46EEF01F072
:1002B000ABB269EF01F0AE50B06F0EB005D00308DD
:1002C000D8A402D0108E03D0B05197EC15F01FEFD8
:1002D00001F0AB98AB88650E61EC1BF0AE5004E00A
:1002E000660EF5D761EC1BF061EC1BF0FDD7000149
:0A02F000716B4BEC1BF02084120030
:0202FA00000002
:0402FC00800E39EC4B
:1003000002F049EC02F0600E0615606E06B56084DE
:1003100060CF50FF060EE96E020EEA6EEFCF06F2D6
:10032000180EE96E0F0EEA6E000E0201076F000E46
:10033000086F000E096F000E0A6F69EC02F0060EDE
:10034000E96E020EEA6EEFCF06F21C0EE96E0F0E9A
:10035000EA6E000E0201076F000E086F000E096FB3
:10036000000E0A6F69EC02F0060EE96E020EEA6EEC
:10037000EFCF06F2000EE96E0F0EEA6E000E0201DC
:10038000076F000E086F000E096F000E0A6F69EC10
:1003900002F0060EE96E020EEA6EEFCF06F2040ED0
:1003A000E96E0F0EEA6E000E0201076F000E086F75
:1003B000000E096F000E0A6F69EC02F0060EE96E7E
:1003C000020EEA6EEFCF06F2080EE96E0F0EEA6E2D
:1003D000000E0201076F000E086F000E096F000E7D
:1003E0000A6F69EC02F0060EE96E020EEA6EEFCFBC
:1003F00006F20C0EE96E0F0EEA6E000E0201076F98
:10040000000E086F000E096F000E0A6F69EC02F013
:10041000060EE96E020EEA6EEFCF06F2100EE96EDE
:100420000F0EEA6E000E0201076F000E086F000E3D
:10043000096F000E0A6F69EC02F0060EE96E020EFB
:10044000EA6EEFCF06F2140EE96E0F0EEA6E000EA2
:100450000201076F000E086F000E096F000E0A6F91
:1004600069EC02F0000E39EC02F00101D66B016B71
:1004700012006F6E146ED76AF00ED66E0400D6505E
:1004800005E0E00E6E141418F9E1120002832086D4
:10049000120001C214F01406400E1402F3CF14F03F
:1004A000C00E1416020102051410706E03C214F07F
:1004B000140614461446144405070511716E06BF50
:1004C000718E06B9718C04C272FF720606B1728C0D
:1004D0001200020106A708D0050E19D808C2EEFFC7
:1004E000E00E0715EF6E1200030E11D80AC2EEFFE0
:1004F00009C2EFFF030E40D8E00EEF16EF86030EA1
:100500000915EE1208C2EEFF07C2EEFF120002014B
:10051000D8900ABFD8800737083709370A37E82E3E
:10052000F7D71200EE50EDB60CD00201096B0A6B42
:10053000EECF08F2EFCF07F2050E1ED81F0E0A17F6
:1005400012D00201EECF0AF2EFCF09F2086B076B6F
:10055000030E12D8FC0E0917030EEE140913EECF8A
:1005600008F2EECF07F207C2E6FF08C2E6FF09C2B3
:10057000E6FF0AC2E6FF12000201D89007B1D88058
:100580000A33093308330733E82EF7D71200010185
:10059000D651060A01E1000C136A030ED65D01E391
:1005A000BDD00F0140B706D0410EE96E0F0EEA6EC6
:1005B000138011D00F0130B706D0310EE96E0F0E47
:1005C000EA6E138208D00F0120B705D0210EE96E24
:1005D0000F0EEA6E13840000E9CF13F2EACF14F293
:1005E000E1CF15F2E2CF16F2180EE16E020EE26EC6
:1005F000E7CF06F269EC02F013C2E9FF14C2EAFF8A
:1006000015C2E1FF16C2E2FF040E17C2EBFF06ADF2
:10061000EB8CE82AE926000EEA2202011751E6CF08
:10062000EEFFE82EFCD7E30EA3160101D62B13AE86
:1006300070D00CEC04F00F01030E401521E1410EC7
:10064000E96E0F0EEA6E0F0EE16E020EE26E92EC94
:1006500002F002EC04F05DE20F014097A4B403D075
:1006600040ADFCD704D0A494A3940101D607410E59
:10067000E96E0F0EEA6E50EC04F00F01408749D08E
:100680000F01030E301521E1310EE96E0F0EEA6EF7
:100690000F0EE16E020EE26E92EC02F002EC04F03C
:1006A00038E20F013097A4B603D030ADFCD704D0A8
:1006B000A496A3960101D607310EE96E0F0EEA6EDD
:1006C00050EC04F00F01308724D00F01030E2015E9
:1006D00020E1210EE96E0F0EEA6E0F0EE16E020EA2
:1006E000E26E92EC02F002EC04F013E20F012097AC
:1006F000A4B803D020ADFCD704D0A498A3980101DE
:10070000D607210EE96E0F0EEA6E50EC04F00F01D1
:1007100020870DD81C0EA312010E12000E0DF350EF
:10072000AC0FE96EEA6A010EEA22138E54D70F016C
:10073000FC0E40170F0130170F012017410EE96E14
:100740000F0EEA6E0B0EE16E020EE26E92EC02F0FC
:10075000310EE96E0F0EEA6E0F0EE16E020EE26EC2
:1007600092EC02F04FD8D8B003D00F01402B02D04A
:100770000F01302B410EE96E0F0EEA6E0B0EE16E8B
:10078000020EE26E92EC02F0210EE96E0F0EEA6E9E
:100790000F0EE16E020EE26E92EC02F033D8D8B08A
:1007A00003D00F01402B02D00F01202B310EE96E38
:1007B0000F0EEA6E0B0EE16E020EE26E92EC02F08C
:1007C000210EE96E0F0EEA6E0F0EE16E020EE26E62
:1007D00092EC02F017D8D8B003D00F01302B02D022
:1007E0000F01202B13A003D00F014087A38413A275
:1007F00003D00F013087A38613A403D00F012087F5
:10080000A388120002010F510B5D10510C591151B8
:100810000D5912510E591200166A02010B690C692A
:100820000D690E6916500E0DF350AC0FE96EEA6AB1
:10083000010EEA220F0EE16E020EE26E92EC02F061
:10084000E1DF0AE30FC20BF210C20CF211C20DF28B
:1008500012C20EF216C015F0162A1650030F01012F
:10086000D619E0E1120015500E0DF350AC0FE96EF1
:10087000EA6A010EEA22152A1550030F0101D65D1E
:100880000EE315500E0DF350AC0FE16EE26A010E4F
:10089000E2220D0EE6CFEEFFE82EFCD7E4D71200E1
:1008A00015500E0DF350AC0FE16EE26A010EE2221C
:1008B0000D0EEFCF14F0E7CFEEFF14C0E6FFE82EE9
:1008C000F8D71200E9CF13F2EACF14F20201186B45
:1008D00060AE09D0F10E6F16A49074AE01D01887E7
:1008E00060B0188115D00F0150AF41D0F10E6F16D6
:1008F0000A0E6F12A492020174AC01D01887070E81
:1009000060141813F80E6014020802E001E3188F57
:100910000F0E65140201176F020160B6188D62B6E2
:10092000188BE9CF15F2EACF16F2610EE96E0F0EC1
:10093000EA6E0B0EE16E020EE26E92EC02F015C250
:10094000E1FF16C2E2FF660EE96E0F0EEA6E0201CB
:100950001751EECFE6FFE82EFCD7609EF10E6F1622
:10096000A4AE03D0A49E02011889010E1200000E4D
:1009700012000BC2D9F10CC2DAF10DC2DBF10EC2CA
:10098000DCF10FC2DDF110C2DEF111C2DFF112C2E3
:10099000E0F107C2E1F108C2E2F109C2E3F10AC2E3
:1009A000E4F118C2E6F113C0E5F114C0E7F115C097
:1009B000E8F116C0E9F1E9CFEAF1EACFEBF1E1CFD6
:1009C000ECF1E2CFEDF11200D9C10BF2DAC10CF279
:1009D000DBC10DF2DCC10EF2DDC10FF2DEC110F29F
:1009E000DFC111F2E0C112F2E1C107F2E2C108F287
:1009F000E3C109F2E4C10AF2E5C113F0E6C118F25D
:100A0000E7C114F0E8C115F0E9C116F0EAC1E9FF49
:100A1000EBC1EAFFECC1E1FFEDC1E2FF1200D890AB
:100A200074B8D8801200D89074B6D8801200D890CC
:100A300074BAD8801200D89060BED8800F0150BF21
:100A4000D88012000101D651060801E1D8901200A9
:100A5000A350A414D8B4A1EF05F0E0CFD7F1A4BE01
:100A6000A2EF05F06FCF17F06ECF18F018500E0BF5
:100A70000101D86F840ED8270A0ED8B0010FFA6E84
:100A8000D851F96E0AD016D023D022D021D016D05A
:100A90001AD0A49CD7C1E0FF4ED04E0E5BEC15F0EF
:100AA0006E500001BDEC14F0F29EF2BEFDD7640E54
:100AB00061EC1BF0A8EC05F0A49A3DD004EC06F024
:100AC000A382A49238D004EC06F0A380A49033D083
:100AD000B9EC04F0136AA4A40AD0A494A3941380DC
:100AE0000CEC04F0410EE96E0F0EEA6E17D0A4A6CE
:100AF0000AD0A496A39613820CEC04F0310EE96E92
:100B00000F0EEA6E0BD0A4A815D0A498A398138456
:100B10000CEC04F0210EE96E0F0EEA6E030E0101DB
:100B2000D607D65D02E201E005D050EC04F0FFDD0F
:100B300033EC04F049DF6F50F10B17106F6ED7C123
:100B4000E0FF12000101A39EA49E02812086F7D738
:100B50000101450E5BEC15F074503FEC16F074503B
:100B6000208674AE02D0018F749E74AC02D0018DC9
:100B7000749C74AA02D0018B749A74A802D0018963
:100B8000749874A602D00187749674A402D001856B
:100B9000749474A202D00183749274A001D07490F2
:100BA000650E5BEC15F001513FEC16F002513FEC85
:100BB00016F01200D890A6B1D880A933A833A73375
:100BC000A633E82EF7D71200EE50EDB60BD0A86B87
:100BD000A96BEECFA7F1EFCFA6F1050EEBDF1F0E4D
:100BE000A91711D0EECFA9F1EFCFA8F1A76BA66B93
:100BF000030EE0DFFC0EA817030EEE14A813EECFD1
:100C0000A7F1EECFA6F11200E9CFA1F1EACFA2F150
:100C1000E1CFA3F1E2CFA4F10101A56B60AE09D051
:100C2000F10E6F16A49074AE01D0A58760B0A581B7
:100C300015D00F0150AF38D00101F10E6F160A0E1A
:100C40006F12A49274AC01D0A587070E6014A5138F
:100C5000F80E6014020802E001E3A58F0F0E651480
:100C6000AA6F60B6A58D62B6A58B610EE96E0F0EF8
:100C7000EA6EAADF660EE96E0F0EEA6E23D8680EE2
:100C8000D8A461EC1BF0609EF10E6F16A4AE02D0EA
:100C9000A49EA589A1C1E9FFA2C1EAFFA3C1E1FF0A
:100CA000A4C1E2FFD890000C0101010E01D0020E98
:100CB000A1C1E9FFA2C1EAFFA3C1E1FFA4C1E2FF14
:100CC000D8801200FFFF7BA103D0A551070B31E0B4
:100CD000A1EC06F0AA51052532082DE301EEA6F09D
:100CE000050EAB6F0451E16E010EE26EEECFE6FF32
:100CF0003E0EE15CD8B011EE06F0AB2FF7D7AA514B
:100D00000CE0AB6F0FEE66F0EECFE6FF3E0EE15C5F
:100D1000D8B011EE06F0AB2FF7D7A5C1E6FF3E0E17
:100D2000E15CD8B011EE06F0E1CF04F1060EAA2581
:100D30000527D884120002852086D8941200FFFF70
:100D40001200FFFF0EA231D0A551070B2EE00EA01E
:100D50002CD001EEA6F0050EAB6F4151E16E010EF5
:100D6000E26EEECFE6FF7B0EE15CD8B011EE43F011
:100D7000AB2FF7D7AA510CE0AB6F0FEE66F0EECFBA
:100D8000E6FF7B0EE15CD8B011EE43F0AB2FF7D756
:100D9000A5C1E6FF7B0EE15CD8B011EE43F0E1CFD8
:100DA00041F1060EAA2542271182D8841200D89458
:040DB0001200FFFF2F
:0C0DB4000101960E9E6F196A1A6A016B0D
:100DC000026B006B7B6BFF0EEE6F9F6BA06B056B76
:100DD000060E046F036F056B426B430E416F406F4D
:100DE000746AA46AA16AA092FF0EA36E738A8184BA
:100DF0000F0160840201010E016F0201040E026FF7
:100E00000201070E036F0201060E046F0201020EBB
:100E1000056F0201DF0E066F7EEC01F0000E39EC6B
:100E200002F0000112001200CAC08EF1CCC08FF196
:100E3000CDC090F1CEC091F1CFC092F1D0C093F16E
:100E4000D1C094F1D2C095F1D1C094F1120001EE5D
:100E50007CF0530EE8CF85F07CC188F07DC189F02D
:100E60007EC18AF07FC18BF001EE80F010EE87F03A
:100E700088C187F0E7CFE8FF050FE66EFB0F06E0BD
:100E800010EE8CF0EECFE6FFE82EFCD789C1E7FF2D
:100E9000D890000E1200D880010E120001EE8AF0E8
:100EA00011EE7CF00E0E56EC07F01200E85204E052
:100EB000EECFE6FFE82EFCD7120001EE7CF03EEC10
:100EC0000AF080C186F007E008E2A6EC1BF0000FF4
:100ED00002E172EF07F0D884120061EC1BF06DEFB5
:100EE00007F0120001018951070B02E1F9EF07F049
:100EF000E80436E0E80433E0E80430E0E8042DE0FC
:100F0000E80407E00001210E2AEC10F00101D8806E
:100F100012000F0EFA6EE00E7C5DE824E824260F26
:100F2000D8B0FA2AF96E96EF08F09EEF08F09FEF1E
:100F300008F0A3EF08F009EF09F01CEF09F01DEF2E
:100F400009F02BEF09F02CEF09F02DEF09F091EFEC
:100F500009F0F1EF09F0F2EF09F0120012001200AF
:100F60000F0EFA6E7C51E824700FD8B0FA2AF96E91
:100F70001FD020D021D022D023D024D025D026D0DD
:100F800027D028D017D02AD02BD02CD02DD02ED09F
:100F90002FD02ED02DD02CD02BD02AD029D028D075
:100FA00027D026D025D024D023D022D021D020D0A5
:100FB000A9EF1BF0A9EF1BF0A9EF1BF0A9EF1BF0A5
:100FC000A9EF1BF0A9EF1BF0A9EF1BF0A9EF1BF095
:100FD000A9EF1BF0A9EF1BF0A9EF1BF0A9EF1BF085
:100FE000A9EF1BF0A9EF1BF0A9EF1BF0A9EF1BF075
:100FF0001200100EFA6E7C51E824020FD8B0FA2AC3
:10100000F96E0FD010D010D010D011D012D013D054
:1010100014D015D016D017D018D019D019D019D097
:1010200019D08B7212001200120011821200A8EF68
:101030001BF0A8EF1BF0A8EF1BF0A8EF1BF0A8EF28
:101040001BF0A8EF1BF0A8EF1BF0A8EF1BF012009D
:101050001200120012000EA012000D0E60EC15F02E
:101060000A0E60EC15F0180E000123EC16F0200EAD
:1010700060EC15F001017C515FEC16F07D515FECE6
:1010800016F07E515FEC16F07F515FEC16F00D0EFE
:1010900060EC15F00A0E60EC15F0190E000123EC5F
:1010A00016F0200E60EC15F0010180515FEC16F097
:1010B00081515FEC16F082515FEC16F083515FECCA
:1010C00016F084515FEC16F085515FEC16F08651F6
:1010D0005FEC16F087515FEC16F00D0E60EC15F02A
:1010E0000A0E60EC15F01A0E000123EC16F0200E2B
:1010F00060EC15F0010188515FEC16F00D0E60EC0C
:1011000015F00A0E60EC15F01B0E000123EC16F032
:10111000200E60EC15F0010189515FEC16F00D0E08
:1011200060EC15F00A0E60EC15F0120080B103D0EF
:10113000DDEC11F012001CEC12F0120012000101A3
:10114000FFD7FED7120001EE80F0EE500BE0E8066C
:1011500011E0E8060FE0E80617E0E80616E0E8060A
:101160001EE01200EE500001C5EC13F00001882FC4
:10117000F9D71200880707E0EE50000195EC0FF058
:101180000101882FF9D712001200880707E0EE50FE
:10119000000195EC0FF00101882FF9D71200050E20
:1011A0008E6F000E8F6F200E906F000E916F020EEB
:1011B000926F000E936F060E966F8D6B000E8C6F04
:1011C0000F0E8B6FE30E8A6FF70E976F04008A0E77
:1011D000E16E010EE26EE6CF07F2E6CF08F2E6CF4F
:1011E00009F2E6CF0AF2960EE16E010EE26EE7CF4B
:1011F00017F2970EE16E010EE26EE7CF18F28E0E37
:10120000E16E010EE26EC7EC02F0000FE0E00101BA
:101210001200010188510FE001EE81F0815105E0DB
:10122000E80604E0E80603E01200120012001200D3
:10123000EE50882FFDD71200120088510BE001EE0E
:1012400080F0EE502EEC1BF00101882FFAD715EC40
:1012500000F0010112001200120001018851EBE0C0
:10126000815117E0E8061CE0E80654E0E80622E0B9
:10127000E80654E0E80653E0E80651E0E80650E0EE
:101280000001210E2AEC10F00101080EDCEC0DF03B
:1012900040D0EEC18EF1050E8F6F020E0CD0120001
:1012A000EEC18EF1050E8F6F000E906F0051916FA1
:1012B000040E01D0120000A12CD0966F8D6B000E91
:1012C0008C6F0F0E8B6FE90E8A6FF70E976F04000D
:1012D0008A0EE16E010EE26EE6CF07F2E6CF08F26B
:1012E000E6CF09F2E6CF0AF2960EE16E010EE26E4B
:1012F000E7CF17F2970EE16E010EE26EE7CF18F21C
:101300008E0EE16E010EE26EC7EC02F0000FE0E01F
:10131000010112000A0EDCEC0DF0120012001200A6
:1013200012000101885187E0815113E0E80623E0B3
:10133000E80625E0E80653E0E80652E0E80650E05B
:101340000001210E2AEC10F00101080EDCEC0DF07A
:1013500045D0EEC18EF1090E8F6F8251EA6E835136
:10136000E96E060E11EE90F0EECFE6FFE806FCE126
:10137000080EA1D712000A0E8F6F020E9CD7120022
:1013800000A12CD0966F8D6B000E8C6F0F0E8B6FA3
:10139000EA0E8A6FF70E976F04008A0EE16E010E57
:1013A000E26EE6CF07F2E6CF08F2E6CF09F2E6CF2B
:1013B0000AF2960EE16E010EE26EE7CF17F2970E7B
:1013C000E16E010EE26EE7CF18F28E0EE16E010EB5
:1013D000E26EC7EC02F0000FE0E001011200120023
:1013E000120012000101020E815F3BE080C18BF10F
:1013F000040E8A6B8C6B8D6BD8908B378C378D3746
:10140000E82EFBD7000E8C130F0E8B13EC0E8A13F5
:10141000EEC18EF1020E8F6F020E966FF70E976F70
:1014200004008A0EE16E010EE26EE6CF07F2E6CF0F
:1014300008F2E6CF09F2E6CF0AF2960EE16E010E4F
:10144000E26EE7CF17F2970EE16E010EE26EE7CF84
:1014500018F28E0EE16E010EE26EC7EC02F0000F84
:10146000E0E00101700E5BEC15F012000EA012001E
:10147000530EE8CF85F011A000011200FFFF01011B
:10148000055145E03F6F060E3F5F3F5142E303C108
:10149000E1FF010EE26E040E3E6FE6CFEEFF3E0E60
:1014A000E15CD8B011EE06F03E2FF7D7E6CF3EF163
:1014B0003E0EE15CD8B011EE06F0090E3E5D29E269
:1014C0003E513F5F29E3080EE9263EC1EFFFE95E8A
:1014D0003E510AE0996FE6CFEEFF3E0EE15CD8B0D8
:1014E00011EE06F03E2FF7D799513E6FE86C090FC9
:1014F000E926E6CFEFFF3E0EE15CD8B011EE06F034
:10150000E1CF03F13E51060F055FD894D890000C4F
:10151000FFFFD880D894610CD880D894620CFFFF6C
:101520000101425145E03F6F060E3F5F3F5142E3EC
:1015300040C1E1FF010EE26E040E3E6FE6CFEEFF0A
:101540007B0EE15CD8B011EE43F03E2FF7D7E6CF2B
:101550003EF17B0EE15CD8B011EE43F0090E3E5D2A
:1015600029E23E513F5F29E3080EE9263EC1EFFF25
:10157000E95E3E510AE0996FE6CFEEFF7B0EE15C3B
:10158000D8B011EE43F03E2FF7D799513E6FE86C7B
:10159000090FE926E6CFEFFF7B0EE15CD8B011EE34
:1015A00043F0E1CF40F13E51060F425FD894D8900E
:1015B000000CFFFFD880D894610CD880D894620CBE
:1015C00001019E2F23D0960E9E6F01EE8EF0EE53FA
:1015D000EE6EAA0EEE6E550EEE6E000E0201076F55
:1015E000000E086F000E096F000E0A6F8E0EE16E7E
:1015F000010EE26E030E0201176F400E0201186F1A
:10160000C7EC02F00101000FE0E08B721200EEC1A6
:101610008EF11200EEC18EF11200EEC18EF11200B9
:10162000EEC18EF11200EEC18EF11200EEC18EF10C
:1016300012000001FE0ECA6322D000EECCF0EE5084
:101640000BE0E8040AE0E8040AE0E80407E0E80444
:1016500014E0E80413E01200120012001200020E5F
:101660001116DC6B20983DEC15F0010EDD6F000EBD
:10167000DE6FDCEC17F0118012001200120000EE99
:10168000CAF0BAEC0DF00101400E976F8A0EE16EC0
:10169000010EE26EE6CF07F2E6CF08F2E6CF09F2DE
:1016A000E6CF0AF2960EE16E010EE26EE7CF17F278
:1016B000970EE16E010EE26EE7CF18F28E0EE16E2C
:1016C000010EE26EC7EC02F00101000FDFE0120034
:1016D0001200010EDD6F000EDE6FFE0ECA5D04E02B
:1016E000EEC1E8FFCA5D41E100EECCF0EE500DE046
:1016F000E80614E0E80612E0E8061AE0E8061BE057
:10170000E80624E0010EDE6F12000001EE50C5EC89
:1017100013F0CB2FFAD7DCEC17F01200CB0705E063
:10172000EE5095EC0FF0CB2FFBD7DCEC17F012004E
:10173000DCEC17F012000001CB0705E0EE5095EC51
:101740000FF0CB2FFBD7DCEC17F012000001000EDE
:10175000EE6E200EEE6E000EEE6E020EEE6E000EBF
:10176000EE6E050EDE27DCEC17F0010100A131D092
:1017700000EECAF0BAEC0DF0000E8C130F0E8B13B6
:10178000E30E8A13400E976F8A0EE16E010EE26E31
:10179000E6CF07F2E6CF08F2E6CF09F2E6CF0AF28B
:1017A000960EE16E010EE26EE7CF17F2970EE16E34
:1017B000010EE26EE7CF18F28E0EE16E010EE26EC0
:1017C000C7EC02F00101000FDFE00001DCEC17F0D4
:1017D00012000001010EDE6FDCEC17F01200010EAA
:1017E000DD6F000EDE6FFE0ECA5D04E0EEC1E8FFA5
:1017F000CA5D16E100EECCF0EE5011E0E8060FE015
:10180000010EE8CFDEF0040EE8CFDDF01DC0DFF002
:101810001EC0E0F01FC0E1F0DCEC17F01200F3D7BF
:101820001200120000EECAF0BAEC0DF00101000E39
:101830008C130F0E8B13E60E8A13400E976F8A0ED1
:10184000E16E010EE26EE6CF07F2E6CF08F2E6CFD8
:1018500009F2E6CF0AF2960EE16E010EE26EE7CFD4
:1018600017F2970EE16E010EE26EE7CF18F28E0EC0
:10187000E16E010EE26EC7EC02F00101000FDFE045
:10188000120012001200010EE8CFDDF0000EDE6F34
:101890000E0E00EECCF011EE8AF0EECFE6FFE82E51
:1018A000FCD7DCEC17F001018A0EE16E010EE26E4E
:1018B000E6CF07F2E6CF08F2E6CF09F2E6CF0AF26A
:1018C000960EE16E010EE26EE7CF17F2970EE16E13
:1018D000010EE26EE7CF18F28E0EE16E010EE26E9F
:1018E000C7EC02F0000FE0E001010001120012005D
:1018F0001200020EE8CFDDF0000EDE6FFE0ECA5DB4
:101900000BE0EEC1E8FFCA5D07E000EECAF0BAECFA
:101910000DF0A8EC0CF00ED000EECCF0EE500DE087
:10192000E8060EE0E80610E0010EE8CFDEF0080E53
:10193000E8CFDFF0DCEC17F01200EEC1DFF0FAD7F1
:10194000000EE8CFDFF0F6D7000EE8CFDFF0F2D7D9
:10195000010100A12AD0000E8C130F0E8B13E90E8B
:101960008A13400E976F8A0EE16E010EE26EE6CF8B
:1019700007F2E6CF08F2E6CF09F2E6CF0AF2960EBA
:10198000E16E010EE26EE7CF17F2970EE16E010EE7
:10199000E26EE7CF18F28E0EE16E010EE26EC7EC3A
:1019A00002F0000FE0E001011200010EE8CFDEF0CE
:1019B00012000001610E2AEC10F00001020EE8CFC7
:1019C000DDF0000EDE6FFE0ECA5D0BE0EEC1E8FF3B
:1019D000CA5D07E000EECAF0BAEC0DF02DEC0DF098
:1019E00017D00001620E2AEC10F0000100EECDF0DD
:1019F000EE5011E0E80625E0E8062EE0E8062CE0CF
:101A0000E8062AE0010EE8CFDEF0080EE8CFDFF0AE
:101A1000DCEC17F01200AA0E0A6E0001630E2AEC2D
:101A200010F00001EECFE2FFEECFE1FF00EEDFF0BD
:101A3000060EE6CFEEFFE82EFCD7070EE8CFDDF06E
:101A4000E7D7EECFE1FFEECFE2FF00EEDFF0E6CF2B
:101A5000EEFF020EDD6FDCD7DBD7010100A12AD03B
:101A6000000E8C130F0E8B13EA0E8A13400E976F25
:101A70008A0EE16E010EE26EE6CF07F2E6CF08F2C3
:101A8000E6CF09F2E6CF0AF2960EE16E010EE26EA3
:101A9000E7CF17F2970EE16E010EE26EE7CF18F274
:101AA0008E0EE16E010EE26EC7EC02F0000FE0E078
:101AB00001011200010EE8CFDEF01200010EE8CFA6
:101AC000DDF0000EE8CFDEF0010100EECAF0BAEC66
:101AD0000DF0CCC0E8FF75EC0DF0000F03E0010E37
:101AE000E8CFDEF0DCEC17F0120001018B6FFA0E8C
:101AF000EE613ED0040E8A6B8C6B8D6BD8908B3769
:101B00008C378D37E82EFBD7000E8C130F0E8B13FE
:101B1000EC0E8A13400E976FEEC18EF1010E8F6F9F
:101B2000020E966F8A0EE16E010EE26EE6CF07F2AC
:101B3000E6CF08F2E6CF09F2E6CF0AF2960EE16EA2
:101B4000010EE26EE7CF17F2970EE16E010EE26E24
:101B5000E7CF18F28E0EE16E010EE26EC7EC02F0D6
:101B60000101000FDFE0500E5BEC15F0000E1200DB
:101B7000010E1200010111EE8BF0EECFE7FFEECF68
:101B800096F111EE8EF0080EEECFE6FFE82EFCD7B0
:101B9000EFCFE4FF040E8A6B8C6B8D6BD8908B3784
:101BA0008C378D37E82EFBD796510808080ED8A041
:101BB000966F400E976F12000101EEC18EF18F6F8C
:101BC00000A12CD08D6B000E8C6F000E8B6F010E60
:101BD0008A6F020E966F400E976F8A0EE16E010EAD
:101BE000E26EE6CF07F2E6CF08F2E6CF09F2E6CFE3
:101BF0000AF2960EE16E010EE26EE7CF17F2970E33
:101C0000E16E010EE26EE7CF18F28E0EE16E010E6C
:101C1000E26EC7EC02F00101000FDFE012001200DB
:101C2000008001D0009000011DEC1AF016EC15F0B8
:101C300099EC16F0D0EC10F0040010BE10EF0EF08E
:101C4000FB53D8A44AEC10F02052D8A4A6EC1AF00A
:101C50001DB064EC18F011BA89EC0FF0D0EC10F064
:101C60000101055103E05DEC07F0FAD74251000194
:101C700005E000EC1AF011B07BEC19F0000112A2A3
:101C800007D000EC1AF011B088EC19F0D8EC17F07E
:101C90009EEC1BF000011CEF0EF0050E515C05E000
:101CA000030E515C02E052A017D09BEC16F051508D
:101CB00060EC15F0046E040E056E00EE04F0A7EC67
:101CC00016F0D8B007D0360E046E000E056EA7ECE5
:101CD00016F0FDE2000112005150000123EC16F055
:101CE000F9D7221D2C1D381D4A1D5A1D6C1D7C1D47
:101CF0008E1DA01DB21DC01DD01DE01DEC1DFA1DC6
:101D0000081E141E201E2C1E3C1E4C1E5E1E6E1E27
:101D1000801E8C1E9A1EAA1EBE1ED01EE21EF01E23
:101D2000061F47534920302E3930000057445420B5
:101D3000526573657400000042726F776E6F757440
:101D400020526573657421000000556E6B6E6F77CD
:101D50006E205265736574210000557365722041D1
:101D6000626F72742052657365740000506F7765FE
:101D700072204F6E20526573657400005374616366
:101D80006B206F766572666C6F772100000053746C
:101D900061636B20756E646572666C6F77210000FD
:101DA0004E6F2041434B2049324320736C6176656E
:101DB00000004E6F204932432064617461210000AD
:101DC0004932432042757320636F6C6C2100000020
:101DD000556E6B6E6F776E204572726F72210000C8
:101DE00043414E20455741524E21000043414E2071
:101DF00052585741524E2100000043414E20545842
:101E00005741524E2100000043414E20525842504B
:101E10002100000043414E20545842502100000050
:101E200043414E205458424F2100000043414E2070
:101E3000525842314F76666C2100000043414E20DB
:101E4000525842304F76666C2100000043414E20CC
:101E5000496E76616C6964206D737367000043415D
:101E60004E20496E6974204661696C21000043412F
:101E70004E20556E6B6E6F776E204572722100009A
:101E800043414E204D657373673A000043414E2035
:101E90004D65737367204964000043414E204D65D2
:101EA0007373672044617461000043414E204D65A7
:101EB00073736720444C656E67746800000043418B
:101EC0004E204D6573736720466C61677300000098
:101ED00043414E2053657420736C617665204964DC
:101EE00000004563686F206572726F722100000008
:101EF00043414E205278204351206F766572666CC4
:101F00006F772100000043414E206E6F64653D00F5
:101F1000000070EC15F0D8B412000EB0D4EF16F03B
:101F20005EEC15F011B8DCEF0FF01B08D8A024EF21
:101F300010F01B08E826E826036E4C0E03261F0E41
:101F4000D8B0010FFA6E03500001F96EEDEF13F0F7
:101F5000EEEF13F0F1EF13F0F6EF13F0FEEF13F0E6
:101F6000FFEF13F000EF14F006EF14F009EF14F098
:101F70001DEF14F030EF14F01FEF14F025EF14F004
:101F80002EEF14F030EF14F037EF14F03EEF14F0B2
:101F900044EF14F045EF14F050EF14F051EF14F04B
:101FA0005FEF14F063EF14F064EF14F065EF14F0DA
:101FB00068EF14F06BEF14F01108D8A031EF10F0B7
:101FC00011981108E826E826036EDC0E03261F0E82
:101FD000D8B0010FFA6E03500001F96E6DEF14F0E6
:101FE0006EEF14F06FEF14F070EF14F025EF14F0B3
:101FF00071EF14F072EF14F073EF14F074EF14F04B
:1020000075EF14F079EF14F07AEF14F07BEF14F021
:1020100082EF14F025EF11F01CEF12F0E826E8260D
:10202000036E340E0326200ED8B0010FFA6E035053
:102030000001F96E8FEF1BF092EF1BF095EF1BF094
:1020400098EF1BF09BEF1BF00008D8B432EF10F0B4
:102050001B0F0001606FE0EC13F000EC14F0605116
:102060001200120011881200470E60EC15F06C0E81
:1020700060EC15F0650E60EC15F06E0E60EC15F07E
:102080006E0E60EC15F00D0E60EC15F00A0E60ECB3
:1020900015F01200FBB553EC10F0FBBB5CEC10F03C
:1020A0001200FB9F120064EC18F0FB95F28A1200FC
:1020B000FB931200FB991200FB9B1200046E2EECA6
:1020C0001BF01200AFEC10F0AFEC10F0AFEC10F022
:1020D000AFEC10F0120062EC10F062EC10F062EC69
:1020E00010F062EC10F062EC10F062EC10F062ECB8
:1020F00010F062EC10F062EC10F062EC10F01200E4
:102100006BEC10F06BEC10F06BEC10F06BEC10F073
:102110006BEC10F06BEC10F06BEC10F06BEC10F063
:102120006BEC10F06BEC10F01200C80EFA6F62EC62
:1021300010F0FA07D8A497EF10F01200A7EC10F0F7
:10214000A7EC10F0A7EC10F0A7EC10F012000400C0
:10215000320EF96FF907D8A4AAEF10F0120012009E
:10216000F96BF90704000000B5EF10F0B7EF10F0BD
:10217000B9EF10F0BBEF10F0BDEF10F0040000005D
:10218000C1EF10F0C3EF10F0C5EF10F0C7EF10F083
:10219000C9EF10F0CBEF10F0D8A4B1EF10F012009F
:1021A0000AB006D00AB209D00AB40DD0000112005C
:1021B00025EC11F00A900001120000001CEC12F056
:1021C0000A9200011200E86A530E856FFE0E866FB8
:1021D000080E876FE40E886F0F0E896F000E8A6FEE
:1021E0008B6FFE0E8C6F8D6F470E8E6F250E8F6F6F
:1021F0001282040000010A9412001200046E056AA3
:10220000640E04AE02D0052A045E045E02E6052ACE
:10221000FCD704260550300FEE6E056A0A0E045EE8
:1022200002E6052AFCD704260550300FEE6E045056
:08223000300FED6EE90612000B
:0822380014EC07F00101009510
:102240000093008707D014EC07F00101009300977A
:1022500000850E82800E39EC02F00201F70E066F47
:10226000180EE96E0F0EEA6EF00E0201076FFF0EF8
:10227000086FFF0E096FFF0E0A6F69EC02F0020192
:10228000F70E066F000EE96E0F0EEA6E000E0201E9
:10229000076F000E086F000E096F000E0A6F69ECE1
:1022A00002F00201F70E066F040EE96E0F0EEA6EE1
:1022B000100E0201076F000E086F000E096F000E6E
:1022C0000A6F69EC02F00201F70E066F1C0EE96E50
:1022D0000F0EEA6EE00E0201076FFF0E086FFF0E91
:1022E000096FFF0E0A6F69EC02F00201F70E066F2C
:1022F000080EE96E0F0EEA6E800E0201076F0F0ED8
:10230000086F000E096F000E0A6F69EC02F00201FF
:10231000F70E066F0C0EE96E0F0EEA6EA00E0201AC
:10232000076F0F0E086F000E096F000E0A6F69EC41
:1023300002F00201F70E066F100EE96E0F0EEA6E44
:10234000C00E0201076F0F0E086F000E096F000E1E
:102350000A6F69EC02F00201F70E066F140EE96EC7
:102360000F0EEA6EE00E0201076F0F0E086F000EEF
:10237000096F000E0A6F69EC02F0000E39EC02F0F2
:102380000B0EB26EF20EB36ED90EB16EA192A08298
:10239000A28200013B0E856FEEC186F0030E876FAF
:1023A000060E886FEEC189F0E86A8A6FE8CFEEF119
:1023B00012820001120014EC07F001018E6B8E8175
:1023C0008E8300B712D08E939F2B9F51936FD8B0FE
:1023D000A02B8F6B9FC190F1A0C191F1926B040E65
:1023E000903791379237E82EFBD7E00E0201076F46
:1023F0000F0E086F000E096F000E0A6F8E0EE16E51
:10240000010EE26E060E0201176FF70E0201186F41
:10241000C7EC02F0000FE9E00101008100013B0E72
:10242000856FEEC186F0020E876F070E886F9FC121
:1024300089F012820101120075EC14F01C0EA7EC59
:1024400014F075EC14F00101198E800E39EC02F0D5
:102450000201F70E066F180EE96E0F0EEA6EFF0E00
:102460000201076FFF0E086FFF0E096FFF0E0A6F64
:1024700069EC02F00201F70E066F000EE96E0F0E16
:10248000EA6E000E0201076F000E086F000E096F62
:10249000000E0A6F69EC02F00201F70E066F040EDF
:1024A000E96E0F0EEA6EE00E0201076F0F0E086F65
:1024B000000E096F000E0A6F69EC02F0000E39EC95
:1024C00002F00400010101EE7CF03EEC0AF0F9E0BC
:1024D0008951070BF6E17B81A490A38001018E6BEB
:1024E000E00E0201076F0F0E086F000E096F000E5D
:1024F0000A6F8E0EE16E010EE26E010E0201176F81
:10250000F70E0201186FC7EC02F0000FE7E00101BF
:10251000040001EE7CF03EEC0AF0FAE00000FEE27E
:102520008951070BE82EF4D7800E39EC02F0020136
:10253000F70E066F180EE96E0F0EEA6EF00E02012E
:10254000076FFF0E086FFF0E096FFF0E0A6F69EC31
:1025500002F00201F70E066F000EE96E0F0EEA6E32
:10256000000E0201076F000E086F000E096F000ECB
:102570000A6F69EC02F00101100E816F0201F70E83
:10258000066F810EE96E010EEA6EEECF07F2EECF16
:1025900008F2EECF09F2EECF0AF2040EE96E0F0E4A
:1025A000EA6E69EC02F00201F70E066F1C0EE96E8E
:1025B0000F0EEA6EE00E0201076FFF0E086FFF0EAE
:1025C000096FFF0E0A6F69EC02F00101800E816F46
:1025D0000F0E82130201F70E066F810EE96E010ED7
:1025E000EA6EEECF07F2EECF08F2EECF09F2EECFB1
:1025F0000AF2080EE96E0F0EEA6E69EC02F00101B4
:10260000A00E816F0F0E82130201F70E066F810E6E
:10261000E96E010EEA6EEECF07F2EECF08F2EECFD2
:1026200009F2EECF0AF20C0EE96E0F0EEA6E69ECBB
:1026300002F00101C00E816F0F0E82130201F70E2E
:10264000066F810EE96E010EEA6EEECF07F2EECF55
:1026500008F2EECF09F2EECF0AF2100EE96E0F0E7D
:10266000EA6E69EC02F00101E00E816F0F0E821339
:102670000201F70E066F810EE96E010EEA6EEECFD3
:1026800007F2EECF08F2EECF09F2EECF0AF2140E07
:10269000E96E0F0EEA6E69EC02F00101000E39ECF2
:1026A00002F08551EE6F199E008300810E92A49076
:1026B000A380A492A382000175EC14F020EC15F025
:1026C0001F0EA7EC14F0EEC1E8FFD0EC14F075EC8F
:0626D00014F001011200EC
:0A26D600436F707972696768742021
:1026E000476C656E6E2053656C6620323030330067
:1026F00000006BEC10F06BEC10F06A6B030ED0EC8A
:1027000013F062EC10F08480000000000000849060
:102710009EEC10F0848000000000000084909EEC8D
:1027200010F0020ED0EC13F09EEC10F0848000004C
:102730000000000084909EEC10F0080ED0EC13F026
:102740009EEC10F0000ED0EC13F09EEC10F0080E92
:10275000D0EC13F09EEC10F0000ED0EC13F09EECD9
:1027600010F0010ED0EC13F0AFEC10F0000ED0EC36
:1027700013F09EEC10F0060ED0EC13F09EEC10F06F
:102780006B6B6C6B9DEC14F01200666F66396A958A
:10279000D0EC13F06651D0EC13F0A7EC10F012005F
:1027A000676F673B0F0E8316F00E671583126AC0C2
:1027B00084FF00008480000000000000849012006C
:1027C000666F66396A856A93D0EC13F06651D0EC77
:1027D00013F0A7EC10F06651120012006C6B9DEF25
:1027E00014F06C076CBF6C2B9DEF14F0F29CF2BCE4
:1027F000FDD7F29EF2BEFDD7108E1200120012001D
:102800006C291F08D8B06C2B9DEF14F0D8EC17F092
:102810001200080E6C076CBF6C2B89EC14F0E86A90
:102820006BB1400E6C258009C5EC13F0200EE0EC76
:1028300013F0100EC5EC13F01200090E1200010E79
:102840006B6F1F0E6C6F9DEF14F0010EC5EC13F053
:1028500062EC10F06C6B6B6B9DEF14F00D0E6C6BFB
:102860000A0E6B290108D8B06B2B9DEF14F0010EF6
:102870000F1A0F0E0EA060EC15F012006B53D8B4B7
:1028800012006B079DEF14F012005F0E8009C5EC7B
:1028900013F0420EE0EC13F00E801190D8EC17F01C
:1028A0001200050E6C252008D8A05BEF14F0050E71
:1028B0006C279DEF14F01F0E6C6F59EF14F034EC81
:1028C00015F09DEF14F012001200040E1D1A1200F4
:1028D000020E1D1A12006BEF14F01200120012000B
:1028E000120012001200120012006C6B6B6B9DEF55
:1028F00014F01200120030EC15F079EC13F025EC16
:1029000014F012001E5060EC15F01F5060EC15F032
:1029100012000C0EC5EC13F09EEC10F09EEC10F0C3
:102920006B510108D8A095EF14F09EEC10F00E0E3C
:10293000C5EC13F09EEC10F0120089EC14F0000EC0
:102940006BB1400E6C258009C5EC13F01200046ECB
:102950009DEC14F00450F8EC14F012006551D8B45A
:10296000B5EF14F0300FE0EC13F06451300FE0ECF1
:1029700013F0200EE0EC13F01200626F080E696F86
:10298000636BD89062376337300E63252AEC10F002
:102990006907D8A4C0EF14F0200E2AEC10F0120042
:1029A0006D6F046E056A640E04AE02D0052A045EE3
:1029B000045E02E6052AFCD704260550300F2AECF7
:1029C00010F05BEC15F0056A0A0E045E02E6052ABB
:1029D000FCD704260550300F2AEC10F05BEC15F004
:1029E0000450300F2AEC10F05BEC15F06D51120022
:1029F000E826F66EE20EF626F76A1C0EF722F86A53
:102A0000000EF8220900F550616F0800F550F76ECE
:102A100061C0F6FF0900F550E86601D01200E0EC55
:102A200013F000EC14F0F6D700801200010E6B6F6B
:102A3000000EA7EC14F0E86A6B6F9DEC14F0120026
:102A40006C6B9DEC14F0200E646F200EE0EC13F024
:102A500000EC14F0642F25EF15F0EEEC13F01200EB
:062A60006B6B6C6B1200B1
:0A2A660012005F0E8009C5EC13F0AA
:102A7000410EE0EC13F00E9000D00001F29CF2BC8D
:102A8000FDD7B50EB36FB46FB16BF28C12000001BD
:102A9000D6EC15F0240EAD6FE86A60EC15F0AD07CA
:102AA000FCE1360E60EC15F070EC15F0FDE0040072
:102AB0003DEC15F012000EA003D012000FA0120082
:102AC00004009EA8FDD7AD6E1200B1C0E8FFE85229
:102AD00006E0B4C0D9FF000EDA6EDF50D8941200C1
:102AE000B15123E0B451D96E000EDA6EB42BB4515B
:102AF000B25DB451D8A0B50EB46FF2BC04D0B1072A
:102B0000D8B4119A07D0F29CF2BCFDD7B107D8B463
:102B1000119AF28C0EA007D010A005D0B151080870
:102B2000D8B0BBEC15F0DF50D8941200FFFFFFFFC8
:102B3000118A100EB15DD8B4B4EF15F0109AB351EC
:102B4000D96EB051DF6EB32BB351B25DB351D8A083
:102B5000B50EB36FB12B0EA005D00E0EB15DD8B47B
:102B6000BEEC15F0D8841200B9EC15F0D894120020
:102B7000FFFF108812001082109012001092108037
:102B800012000EA001D01200AD6F080EAF6FAE6B39
:102B9000D890AD37AE37300EAE2560EC15F0AF2FC4
:102BA000C7EF15F0200E60EC15F01200EEEC15F0FA
:102BB000B50EB36FB46F0F0FB26F9B0E996F9A6F14
:102BC0000F0F986F976BB16B106A116A126A0E6AD9
:102BD0000F6ADA6BCB6B010E0F6E12000A0EAF6E2E
:102BE000AC98AC84AC9AAC9C9D989D8AAB9CAB880D
:102BF000AB8EAC8A12000001AE6F00C1ADF0ADA388
:102C00001DD0EEC18EF1AEC08FF1EB0E0201076F49
:102C10000F0E086F000E096F000E0A6F8E0EE16E28
:102C2000010EE26E020E0201176FF70E0201186F1D
:102C3000C7EC02F0000FE5E0ADC0E8FF00010001C5
:102C40000EA001D01200E826F66EE20EF626F76A14
:102C50001C0EF722F86A000EF8220900F550AD6F3D
:102C60000800F550F76EADC0F6FF0900F550E866B4
:102C70003BEF16F0120060EC15F035EF16F00EA0E9
:102C800001D01200E0CFC5F00001C66F690E60EC04
:102C900015F0080EC86FC76BD890C637C737300E0F
:102CA000C72560EC15F0C82F4BEF16F0690E60ECED
:102CB00015F0200E60EC15F0C5C0E0FF1200DB6FD0
:102CC000046E056A640E04AE02D0052A045E045E3A
:102CD00002E6052AFCD704260550300F60EC15F0FB
:102CE000056A0A0E045E02E6052AFCD70426055092
:102CF000300F60EC15F00450300F60EC15F0200E32
:102D000060EC15F0DB5112000D0E60EC15F00A0EB0
:102D100060EC15F0420E60EC15F0530E60EC15F00F
:102D2000520E60EC15F0200E60EC15F0E0505FEFF5
:102D300016F0120012009EA8FED7AB9E829C0001E6
:102D40009EEC10F0828CAB8E9EEC10F01200E92A03
:102D5000EF5216E008C0E8FFE82AEF260400EF5023
:102D6000085C0AE065EC15F0F9E0E906EF6205D0D1
:102D700070EC15F0D8901200D884D880E86A120060
:102D8000040065EC15F0FCE0F0D7046E60EC15F083
:102D9000000E056E00EE04F0A7EC16F0D8A01200AD
:082DA0003DEC15F0D880120093
:082DA800AD6F11A005D0210E52
:102DB0002AEC10F0DC8120882D0EFA6EDA51E8241E
:102DC000C80FD8B0FA2AF96E32D03AD03FD04BD0E3
:102DD0004DD04FD051D053D055D057D059D05BD0D3
:102DE0005DD05FD061D063D065D00AD0AD5160ECCA
:102DF00015F0DA05E806CB6318D0110EDA6F120071
:102E0000DA6B360EAD6306D060EC15F05DEC17F0B2
:102E100000011200DA6B520E2AEC10F0AD5160EC9A
:102E200015F0350EAD6309D01200DA2B1200AD514A
:102E300060EC15F0C96FC951F8E1FF0EDA6FF5D7F4
:102E4000AD5160EC15F0ADC0CAF0EFD7AD5160ECFC
:102E500015F00F0EAD6161EC1BF0AD51CB6FD8A436
:102E6000E4D7AD51CAD7ADC0CCF0C0D7ADC0CDF01E
:102E7000BDD7ADC0CEF0BAD7ADC0CFF0B7D7ADC0DB
:102E8000D0F0B4D7ADC0D1F0B1D7ADC0D2F0AED78D
:102E9000ADC0D3F0ABD7ADC0D4F0A8D7ADC0D5F09E
:102EA000A5D7ADC0D6F0A2D7ADC0D7F09FD7ADC0E3
:102EB000D8F09CD7ADC0D9F099D7010EDD6F000EC8
:102EC000DE6FC9511A08D8A005D0DCEC17F0C95143
:102ED0009AEF0FF0C9512B08D8A00AD01C0EC95D7B
:102EE000D8A006D0DCEC17F0C951E40FE2EF0FF0E8
:102EF000C951300804E3C951D40F0EEF10F0C95185
:102F00005308D8A04DD0350EC95DD8A049D000EEE9
:102F1000CAF0C951CB0FE826E826036E2E0E032611
:102F20002F0ED8B0010FFA6E03500001F96E07EFB3
:102F30000BF00AEF0BF00DEF0BF010EF0BF013EFAF
:102F40000BF016EF0BF019EF0BF068EF0BF069EFD9
:102F50000BF0EFEF0BF011EF0CF012EF0CF041EF74
:102F60000CF042EF0CF01CEF11F023EF11F043EFE7
:102F70000CF078EF0CF0DBEF11F01CEF12F079EFB2
:102F80000CF0D9EF0CF05EEF0DF00FEF0EF00FEF3D
:102F90000EF00FEF0EF00FEF0EF00FEF0EF012002D
:102FA000DD2B010EDE6F0A0EDF6FDCEC17F0F7D7BA
:102FB00011A01200119012000EA012000001040EC8
:102FC000AB6F119C119EAB0765E03B0E60EC15F0FA
:102FD00070EC15F0FDE004003B08D8A4118CEEC1A4
:102FE000E8FFAD6F60EC15F070EC15F0FDE004004B
:102FF000AD5DD8A4118C7E0ED8A42AEC10F0DDC0F3
:10300000ADF00F0EAD6161EC1BF000EEDDF0EE50A7
:10301000AD6F03E1670E61EC1BF0080803E7670E74
:1030200061EC1BF0AD5160EC15F070EC15F0FDE0BB
:103030000400AD5DD8A4118C7E0ED8A42AEC10F04B
:1030400011B4DE8FEF5060EC15F070EC15F0FDE080
:103050000400EE5CD8A4118C7E0ED8A42AEC10F0EB
:10306000AD07F0E111BC0AD0360E60EC15F070EC43
:1030700015F0FDE00400360800E012007E0E2AEC98
:1030800010F0119C350E60EC15F070EC15F0FDE0C1
:10309000350899E047EC15F01200E8CFDFF0010E9B
:1030A000E8CFDEF0020EE8CFDDF0DCEC17F0120026
:1030B0001E6A1F6AE76BE86BE96BEA6B1D6A1D927B
:1030C0001D8483EC18F012007AEC18F0D8A476EC8A
:1030D00019F0EA511F6EE9511E6E1D961E501F1009
:1030E000D8A41D86D650EB5DD8A41200AAEC18F027
:1030F0001D90120083EC18F0E9511E5CD8A4120058
:10310000EA511F5C1200E96BEA6B8390959080A4F2
:10311000EA8780A8E98180AAEA85958083929592C2
:1031200080A4E98F80A8EA8180AAEA8395828394AB
:10313000959480A4E98980A8E98B80AAE98D95847B
:103140008396959680A4E98380A8E98580AAE9877B
:10315000958612001DA2E8EF18F0E7511E18046EC4
:10316000300E04B04EEC19F0310E04B24EEC19F0F2
:10317000320E04B44EEC19F0330E04B64EEC19F0D6
:10318000340E04B84EEC19F0350E04BA4EEC19F0BA
:10319000360E04BC4EEC19F0370E04BE4EEC19F09E
:1031A000E8511F18056E380E05B04EEC19F0390EB7
:1031B00005B24EEC19F0230E05B44EEC19F02A0EB0
:1031C00005B64EEC19F01E50E76F1F50E86F120065
:1031D000E7511E18046E04A0F8EF18F0300E1EA080
:1031E0004EEC19F01EB002D08B908B921EA00A8478
:1031F00004A2FFEF18F0310E1EA24EEC19F004A449
:1032000006EF19F0320E1EA44EEC19F004A60DEFD5
:1032100019F0330E1EA64EEC19F004A814EF19F0A5
:10322000340E1EA84EEC19F004AA1BEF19F0350E4F
:103230001EAA4EEC19F004AC22EF19F0360E1EACAB
:103240004EEC19F004AE29EF19F0370E1EAE4EEC1D
:1032500019F0E8511F18056E05A033EF19F0380E6C
:103260001FA04EEC19F005A23AEF19F0390E1FA27B
:103270004EEC19F005A643EF19F02A0E1FA64EECEE
:1032800019F01FA60A8005A44CEF19F0230E1FA405
:103290004EEC19F01FA40A82E3EF18F0EC6F0EA0B9
:1032A00060EC15F000C1EDF0EDA11FD0EEC18EF184
:1032B000010EE8CF8FF1ECC090F1E40E0201076F30
:1032C0000F0E086F000E096F000E0A6F8E0EE16E72
:1032D000010EE26E030E0201176FF70E0201186F66
:1032E000C7EC02F0000FE2E000011200D650060F1A
:0632F000EB6F1D801200CF
:0A32F60001EE7CF08FEC0AF027ECEB
:1033000007F0000188EC19F00400D8EC17F0120067
:10331000040EAB6F119C119EAB0748E03DEC15F01D
:10332000119C855160EC15F070EC15F0FDE08563A3
:10333000118C865160EC15F070EC15F0FDE08663A1
:10334000118C875160EC15F070EC15F0FDE087638F
:10335000118C00EE88F087C004F00400EF5060ECA0
:1033600015F070EC15F0FDE0EF62118CE92A042EE7
:10337000F5D711AC10D0119C87510F08046E350E93
:1033800060EC15F070EC15F0FDE0042EF8D7350870
:10339000D8A41DD0C1D7360E60EC15F070EC15F036
:1033A000FDE03608D8A4E7D712921200119C87518D
:1033B0000F08046E370E60EC15F070EC15F0FDE0B0
:1033C000042EF8D73708D8A402D0A6D71200119C33
:1033D00087510F08046E370E60EC15F070EC15F095
:1033E000FDE0042EF8D7FFD7120011B012003DEC1B
:1033F00015F011980E801180119C1200120012001D
:103400000EA016D0DA5113E111BA11D0B1510FE16B
:103410009BEC16F0140EC5EC16F0D8B008D0360EA2
:10342000046E000E056EA7EC16F0FDE2118012008E
:0A34300012921200FFFF1200FFFFCE
:06343A0058EC1AF0006ED0
:10344000516E0EC052F07AEC1AF081EC1AF086EC54
:103450001AF08AEC1AF090EC1AF077EC1AF00001EE
:103460007BEC14F0D6EC15F07AEC1BF0000143EC89
:103470001BF0A2EC1AF058EC18F0000125EC14F047
:103480001FEC14F0EEEC13F00050A7EC14F075EC08
:1034900014F0006AD082D080D086FC9EFC9C65EC43
:1034A0001AF0DAEC06F00001A4EC1BF000011200A7
:1034B00000B0040CD0A2050CD0A0020CFCBE060C7F
:1034C000FCBC070CD0A6010C030C83EC18F0E953EC
:1034D000E9B301D01200198E75EC14F01C0EA7ECA4
:1034E00014F075EC14F01CEC12F000011200066AE6
:1034F0000A6A1200806A070EB46EC16EFF0E926EE9
:103500001200816A81843B0E936E1200826ABC0EA7
:10351000946E1200836A070EB46E0F0E956E120041
:10352000846A000E966E12001200120099EC1AF0D6
:1035300012001200066E1200076E120006501200F2
:04354000075012001E
:0C354400030E806F206A12006BC083F041
:103550006CC082F0080E20A002D020901AD0090E74
:1035600020A202D0209215D00A0E20A402D02094CE
:1035700010D020A605D0E9EC1AF02096000109D061
:1035800020A805D01FEC1BF02098000102D00B0EE4
:10359000206A0001816F80A1D8EF1AF01FEC14F0AF
:1035A00020EC15F08151A7EC14F081510FB004D03C
:1035B00080A302D0FBEC15F083C06BF082C06CF0EE
:1035C0009DEC14F00101015302110001D8B42096C2
:1035D00012000101130E01AF02D0019F1200120E62
:1035E00001AD02D0019D1200110E01AB02D0019B72
:1035F0001200100E01A902D0019912000F0E01A7AE
:1036000002D0019712000E0E01A502D00195120002
:103610000D0E01A302D001931200140E02A103D0DB
:103620000291A38E1200150E02A302D00293120083
:103630001E0E02A501D00295026B160E12000001AB
:0A3640001D0EDCA101D0DC91120088
:06364A00C7B425EF1BF0E0
:10365000C5501F0BD8A428EF1BF0120000010B6E01
:103660000D84080E7A6142EF1BF00D927C51D96EE9
:103670000B50DF6E7C2B7C517D5D7C51D8A0720E8F
:103680007C6F7A2B1200310EC86EC79CC79E380E15
:10369000C66E9D86A0860D6A716B720E7C6F7B6F05
:1036A000070F7D6F7A6B12002C0EE8462EEC1BF094
:1036B000000E2EEC1BF0400E2EEC1BF017EC00F071
:0236C0001200F6
:0E36C2001C6E0001210E60EC15F01C502AEC6D
:1036D00010F01C50FFD71200000E1B6EE86A0400A9
:1036E000000000000000E82EFAD71B2EF8D71200C9
:0436F0001C6A12003E
:0C36F400E80EF26E9D98086A096AC70E85
:10370000D56EF2948150D08E0001FB6BF194F19054
:0E3710009F6A020EA26EA56AA2EC1BF01200C8
:02371E00DCECE1
:1037200017F01200DCEC17F01200DCEC17F01200BE
:0C373000DCEC17F01200DCEC17F01200CB
:04373C000201120074
:0C37400012001200120012001200120011
:04374C00000E120059
:043750001200120051
:020000040030CA
:0100010022DC
:010002000BF2
:010003000EEE
:010006008178
:00000001FF
